{"abi":[{"type":"constructor","inputs":[{"name":"_payer","type":"address","internalType":"address"},{"name":"_payee","type":"address","internalType":"address"},{"name":"_amount","type":"uint256","internalType":"uint256"}],"stateMutability":"nonpayable"},{"type":"receive","stateMutability":"payable"},{"type":"function","name":"amount","inputs":[],"outputs":[{"name":"","type":"uint256","internalType":"uint256"}],"stateMutability":"view"},{"type":"function","name":"fund","inputs":[],"outputs":[],"stateMutability":"payable"},{"type":"function","name":"isFunded","inputs":[],"outputs":[{"name":"","type":"bool","internalType":"bool"}],"stateMutability":"view"},{"type":"function","name":"isRefunded","inputs":[],"outputs":[{"name":"","type":"bool","internalType":"bool"}],"stateMutability":"view"},{"type":"function","name":"isReleased","inputs":[],"outputs":[{"name":"","type":"bool","internalType":"bool"}],"stateMutability":"view"},{"type":"function","name":"payee","inputs":[],"outputs":[{"name":"","type":"address","internalType":"address"}],"stateMutability":"view"},{"type":"function","name":"payer","inputs":[],"outputs":[{"name":"","type":"address","internalType":"address"}],"stateMutability":"view"},{"type":"function","name":"refund","inputs":[],"outputs":[],"stateMutability":"nonpayable"},{"type":"function","name":"release","inputs":[],"outputs":[],"stateMutability":"nonpayable"},{"type":"event","name":"Funded","inputs":[{"name":"from","type":"address","indexed":true,"internalType":"address"},{"name":"amount","type":"uint256","indexed":false,"internalType":"uint256"}],"anonymous":false},{"type":"event","name":"Refunded","inputs":[{"name":"to","type":"address","indexed":true,"internalType":"address"},{"name":"amount","type":"uint256","indexed":false,"internalType":"uint256"}],"anonymous":false},{"type":"event","name":"Released","inputs":[{"name":"to","type":"address","indexed":true,"internalType":"address"},{"name":"amount","type":"uint256","indexed":false,"internalType":"uint256"}],"anonymous":false}],"bytecode":{"object":"0x608060405234801561000f575f5ffd5b506040516112b33803806112b38339818101604052810190610031919061026e565b5f73ffffffffffffffffffffffffffffffffffffffff168373ffffffffffffffffffffffffffffffffffffffff160361009f576040517f08c379a000000000000000000000000000000000000000000000000000000000815260040161009690610318565b60405180910390fd5b5f73ffffffffffffffffffffffffffffffffffffffff168273ffffffffffffffffffffffffffffffffffffffff160361010d576040517f08c379a000000000000000000000000000000000000000000000000000000000815260040161010490610380565b60405180910390fd5b5f811161014f576040517f08c379a0000000000000000000000000000000000000000000000000000000008152600401610146906103e8565b60405180910390fd5b825f5f6101000a81548173ffffffffffffffffffffffffffffffffffffffff021916908373ffffffffffffffffffffffffffffffffffffffff1602179055508160015f6101000a81548173ffffffffffffffffffffffffffffffffffffffff021916908373ffffffffffffffffffffffffffffffffffffffff16021790555080600281905550505050610406565b5f5ffd5b5f73ffffffffffffffffffffffffffffffffffffffff82169050919050565b5f61020a826101e1565b9050919050565b61021a81610200565b8114610224575f5ffd5b50565b5f8151905061023581610211565b92915050565b5f819050919050565b61024d8161023b565b8114610257575f5ffd5b50565b5f8151905061026881610244565b92915050565b5f5f5f60608486031215610285576102846101dd565b5b5f61029286828701610227565b93505060206102a386828701610227565b92505060406102b48682870161025a565b9150509250925092565b5f82825260208201905092915050565b7f496e76616c6964207061796572000000000000000000000000000000000000005f82015250565b5f610302600d836102be565b915061030d826102ce565b602082019050919050565b5f6020820190508181035f83015261032f816102f6565b9050919050565b7f496e76616c6964207061796565000000000000000000000000000000000000005f82015250565b5f61036a600d836102be565b915061037582610336565b602082019050919050565b5f6020820190508181035f8301526103978161035e565b9050919050565b7f416d6f756e74206d757374206265203e203000000000000000000000000000005f82015250565b5f6103d26012836102be565b91506103dd8261039e565b602082019050919050565b5f6020820190508181035f8301526103ff816103c6565b9050919050565b610ea0806104135f395ff3fe608060405260043610610089575f3560e01c806386d1a69f1161005857806386d1a69f14610161578063aa8c217c14610177578063ae90b213146101a1578063b60d4288146101cb578063fa2a8997146101d5576100c9565b8063123119cd146100cd578063590e1ae3146100f7578063779cd0831461010d5780637c65430314610137576100c9565b366100c9576040517f08c379a00000000000000000000000000000000000000000000000000000000081526004016100c0906109a7565b60405180910390fd5b5f5ffd5b3480156100d8575f5ffd5b506100e16101ff565b6040516100ee9190610a04565b60405180910390f35b348015610102575f5ffd5b5061010b610223565b005b348015610118575f5ffd5b506101216104c0565b60405161012e9190610a37565b60405180910390f35b348015610142575f5ffd5b5061014b6104d3565b6040516101589190610a37565b60405180910390f35b34801561016c575f5ffd5b506101756104e5565b005b348015610182575f5ffd5b5061018b610784565b6040516101989190610a68565b60405180910390f35b3480156101ac575f5ffd5b506101b561078a565b6040516101c29190610a04565b60405180910390f35b6101d36107af565b005b3480156101e0575f5ffd5b506101e961093a565b6040516101f69190610a37565b60405180910390f35b5f5f9054906101000a900473ffffffffffffffffffffffffffffffffffffffff1681565b5f5f9054906101000a900473ffffffffffffffffffffffffffffffffffffffff1673ffffffffffffffffffffffffffffffffffffffff163373ffffffffffffffffffffffffffffffffffffffff16146102b1576040517f08c379a00000000000000000000000000000000000000000000000000000000081526004016102a890610acb565b60405180910390fd5b60035f9054906101000a900460ff166102ff576040517f08c379a00000000000000000000000000000000000000000000000000000000081526004016102f690610b33565b60405180910390fd5b600360019054906101000a900460ff161580156103295750600360029054906101000a900460ff16155b610368576040517f08c379a000000000000000000000000000000000000000000000000000000000815260040161035f90610b9b565b60405180910390fd5b6001600360026101000a81548160ff0219169083151502179055505f5f5f9054906101000a900473ffffffffffffffffffffffffffffffffffffffff1673ffffffffffffffffffffffffffffffffffffffff166002546040516103ca90610be6565b5f6040518083038185875af1925050503d805f8114610404576040519150601f19603f3d011682016040523d82523d5f602084013e610409565b606091505b505090508061044d576040517f08c379a000000000000000000000000000000000000000000000000000000000815260040161044490610c44565b60405180910390fd5b5f5f9054906101000a900473ffffffffffffffffffffffffffffffffffffffff1673ffffffffffffffffffffffffffffffffffffffff167fd7dee2702d63ad89917b6a4da9981c90c4d24f8c2bdfd64c604ecae57d8d06516002546040516104b59190610a68565b60405180910390a250565b600360029054906101000a900460ff1681565b60035f9054906101000a900460ff1681565b5f5f9054906101000a900473ffffffffffffffffffffffffffffffffffffffff1673ffffffffffffffffffffffffffffffffffffffff163373ffffffffffffffffffffffffffffffffffffffff1614610573576040517f08c379a000000000000000000000000000000000000000000000000000000000815260040161056a90610cac565b60405180910390fd5b60035f9054906101000a900460ff166105c1576040517f08c379a00000000000000000000000000000000000000000000000000000000081526004016105b890610b33565b60405180910390fd5b600360019054906101000a900460ff161580156105eb5750600360029054906101000a900460ff16155b61062a576040517f08c379a000000000000000000000000000000000000000000000000000000000815260040161062190610b9b565b60405180910390fd5b6001600360016101000a81548160ff0219169083151502179055505f60015f9054906101000a900473ffffffffffffffffffffffffffffffffffffffff1673ffffffffffffffffffffffffffffffffffffffff1660025460405161068d90610be6565b5f6040518083038185875af1925050503d805f81146106c7576040519150601f19603f3d011682016040523d82523d5f602084013e6106cc565b606091505b5050905080610710576040517f08c379a000000000000000000000000000000000000000000000000000000000815260040161070790610d14565b60405180910390fd5b60015f9054906101000a900473ffffffffffffffffffffffffffffffffffffffff1673ffffffffffffffffffffffffffffffffffffffff167fb21fb52d5749b80f3182f8c6992236b5e5576681880914484d7f4c9b062e619e6002546040516107799190610a68565b60405180910390a250565b60025481565b60015f9054906101000a900473ffffffffffffffffffffffffffffffffffffffff1681565b5f5f9054906101000a900473ffffffffffffffffffffffffffffffffffffffff1673ffffffffffffffffffffffffffffffffffffffff163373ffffffffffffffffffffffffffffffffffffffff161461083d576040517f08c379a000000000000000000000000000000000000000000000000000000000815260040161083490610d7c565b60405180910390fd5b60035f9054906101000a900460ff161561088c576040517f08c379a000000000000000000000000000000000000000000000000000000000815260040161088390610de4565b60405180910390fd5b60025434146108d0576040517f08c379a00000000000000000000000000000000000000000000000000000000081526004016108c790610e4c565b60405180910390fd5b600160035f6101000a81548160ff0219169083151502179055503373ffffffffffffffffffffffffffffffffffffffff167f5af8184bef8e4b45eb9f6ed7734d04da38ced226495548f46e0c8ff8d7d9a524346040516109309190610a68565b60405180910390a2565b600360019054906101000a900460ff1681565b5f82825260208201905092915050565b7f5573652066756e642829206f6e6c7900000000000000000000000000000000005f82015250565b5f610991600f8361094d565b915061099c8261095d565b602082019050919050565b5f6020820190508181035f8301526109be81610985565b9050919050565b5f73ffffffffffffffffffffffffffffffffffffffff82169050919050565b5f6109ee826109c5565b9050919050565b6109fe816109e4565b82525050565b5f602082019050610a175f8301846109f5565b92915050565b5f8115159050919050565b610a3181610a1d565b82525050565b5f602082019050610a4a5f830184610a28565b92915050565b5f819050919050565b610a6281610a50565b82525050565b5f602082019050610a7b5f830184610a59565b92915050565b7f4f6e6c792070617965722063616e20726566756e6400000000000000000000005f82015250565b5f610ab560158361094d565b9150610ac082610a81565b602082019050919050565b5f6020820190508181035f830152610ae281610aa9565b9050919050565b7f46756e6473206e6f7420796574206164646564000000000000000000000000005f82015250565b5f610b1d60138361094d565b9150610b2882610ae9565b602082019050919050565b5f6020820190508181035f830152610b4a81610b11565b9050919050565b7f416c72656164792066696e616c697a65640000000000000000000000000000005f82015250565b5f610b8560118361094d565b9150610b9082610b51565b602082019050919050565b5f6020820190508181035f830152610bb281610b79565b9050919050565b5f81905092915050565b50565b5f610bd15f83610bb9565b9150610bdc82610bc3565b5f82019050919050565b5f610bf082610bc6565b9150819050919050565b7f45544820726566756e6420746f207061796572206661696c65640000000000005f82015250565b5f610c2e601a8361094d565b9150610c3982610bfa565b602082019050919050565b5f6020820190508181035f830152610c5b81610c22565b9050919050565b7f4f6e6c792070617965722063616e2072656c65617365000000000000000000005f82015250565b5f610c9660168361094d565b9150610ca182610c62565b602082019050919050565b5f6020820190508181035f830152610cc381610c8a565b9050919050565b7f455448207472616e7366657220746f207061796565206661696c6564000000005f82015250565b5f610cfe601c8361094d565b9150610d0982610cca565b602082019050919050565b5f6020820190508181035f830152610d2b81610cf2565b9050919050565b7f4f6e6c792070617965722063616e2066756e64000000000000000000000000005f82015250565b5f610d6660138361094d565b9150610d7182610d32565b602082019050919050565b5f6020820190508181035f830152610d9381610d5a565b9050919050565b7f416c72656164792066756e6465640000000000000000000000000000000000005f82015250565b5f610dce600e8361094d565b9150610dd982610d9a565b602082019050919050565b5f6020820190508181035f830152610dfb81610dc2565b9050919050565b7f496e636f72726563742045544820616d6f756e740000000000000000000000005f82015250565b5f610e3660148361094d565b9150610e4182610e02565b602082019050919050565b5f6020820190508181035f830152610e6381610e2a565b905091905056fea2646970667358221220a50afdc684f2f05dbb9747ca3eaa1d5dba3a29f45b87ffc370e37e97f5adced764736f6c634300081c0033","linkReferences":{}},"methodIdentifiers":{"amount()":"aa8c217c","fund()":"b60d4288","isFunded()":"7c654303","isRefunded()":"779cd083","isReleased()":"fa2a8997","payee()":"ae90b213","payer()":"123119cd","refund()":"590e1ae3","release()":"86d1a69f"},"id":0}