{"abi":[{"type":"constructor","inputs":[{"name":"_uuid","type":"bytes32","internalType":"bytes32"},{"name":"_owner","type":"address","internalType":"address"},{"name":"_linkedEscrow","type":"address","internalType":"address"}],"stateMutability":"nonpayable"},{"type":"fallback","stateMutability":"payable"},{"type":"receive","stateMutability":"payable"},{"type":"function","name":"executeCall","inputs":[{"name":"target","type":"address","internalType":"address"},{"name":"data","type":"bytes","internalType":"bytes"}],"outputs":[],"stateMutability":"nonpayable"},{"type":"function","name":"factory","inputs":[],"outputs":[{"name":"","type":"address","internalType":"address"}],"stateMutability":"view"},{"type":"function","name":"fallbackTarget","inputs":[],"outputs":[{"name":"","type":"address","internalType":"address"}],"stateMutability":"view"},{"type":"function","name":"linkedEscrow","inputs":[],"outputs":[{"name":"","type":"address","internalType":"address"}],"stateMutability":"view"},{"type":"function","name":"owner","inputs":[],"outputs":[{"name":"","type":"address","internalType":"address"}],"stateMutability":"view"},{"type":"function","name":"pause","inputs":[],"outputs":[],"stateMutability":"nonpayable"},{"type":"function","name":"paused","inputs":[],"outputs":[{"name":"","type":"bool","internalType":"bool"}],"stateMutability":"view"},{"type":"function","name":"setFallbackTarget","inputs":[{"name":"_target","type":"address","internalType":"address"}],"outputs":[],"stateMutability":"nonpayable"},{"type":"function","name":"unpause","inputs":[],"outputs":[],"stateMutability":"nonpayable"},{"type":"function","name":"uuid","inputs":[],"outputs":[{"name":"","type":"bytes32","internalType":"bytes32"}],"stateMutability":"view"},{"type":"function","name":"withdraw","inputs":[],"outputs":[],"stateMutability":"nonpayable"},{"type":"event","name":"Executed","inputs":[{"name":"target","type":"address","indexed":true,"internalType":"address"},{"name":"data","type":"bytes","indexed":false,"internalType":"bytes"}],"anonymous":false},{"type":"event","name":"Forwarded","inputs":[{"name":"to","type":"address","indexed":true,"internalType":"address"},{"name":"amount","type":"uint256","indexed":false,"internalType":"uint256"}],"anonymous":false},{"type":"event","name":"Paused","inputs":[],"anonymous":false},{"type":"event","name":"Received","inputs":[{"name":"from","type":"address","indexed":true,"internalType":"address"},{"name":"amount","type":"uint256","indexed":false,"internalType":"uint256"}],"anonymous":false},{"type":"event","name":"SelfDestructed","inputs":[],"anonymous":false},{"type":"event","name":"Unpaused","inputs":[],"anonymous":false}],"bytecode":{"object":"0x608060405234801561000f575f5ffd5b506040516116273803806116278339818101604052810190610031919061026c565b5f73ffffffffffffffffffffffffffffffffffffffff168273ffffffffffffffffffffffffffffffffffffffff160361009f576040517f08c379a000000000000000000000000000000000000000000000000000000000815260040161009690610316565b60405180910390fd5b5f73ffffffffffffffffffffffffffffffffffffffff168173ffffffffffffffffffffffffffffffffffffffff160361010d576040517f08c379a00000000000000000000000000000000000000000000000000000000081526004016101049061037e565b60405180910390fd5b82600281905550815f5f6101000a81548173ffffffffffffffffffffffffffffffffffffffff021916908373ffffffffffffffffffffffffffffffffffffffff1602179055503360015f6101000a81548173ffffffffffffffffffffffffffffffffffffffff021916908373ffffffffffffffffffffffffffffffffffffffff1602179055508060045f6101000a81548173ffffffffffffffffffffffffffffffffffffffff021916908373ffffffffffffffffffffffffffffffffffffffff16021790555050505061039c565b5f5ffd5b5f819050919050565b6101f1816101df565b81146101fb575f5ffd5b50565b5f8151905061020c816101e8565b92915050565b5f73ffffffffffffffffffffffffffffffffffffffff82169050919050565b5f61023b82610212565b9050919050565b61024b81610231565b8114610255575f5ffd5b50565b5f8151905061026681610242565b92915050565b5f5f5f60608486031215610283576102826101db565b5b5f610290868287016101fe565b93505060206102a186828701610258565b92505060406102b286828701610258565b9150509250925092565b5f82825260208201905092915050565b7f496e76616c6964206f776e6572000000000000000000000000000000000000005f82015250565b5f610300600d836102bc565b915061030b826102cc565b602082019050919050565b5f6020820190508181035f83015261032d816102f4565b9050919050565b7f496e76616c696420657363726f770000000000000000000000000000000000005f82015250565b5f610368600e836102bc565b915061037382610334565b602082019050919050565b5f6020820190508181035f8301526103958161035c565b9050919050565b61127e806103a95f395ff3fe60806040526004361061009f575f3560e01c806381407aaa1161006357806381407aaa146104d35780638456cb59146104fb5780638da5cb5b14610511578063bb07e85d1461053b578063bca8c7b514610565578063c45a01551461058d57610231565b8063320b2dc8146104295780633ccfd60b146104535780633f4ba83a146104695780635c975abb1461047f5780637d659614146104a957610231565b3661023157600460149054906101000a900460ff16156100f4576040517f08c379a00000000000000000000000000000000000000000000000000000000081526004016100eb90610cb9565b60405180910390fd5b3373ffffffffffffffffffffffffffffffffffffffff167f88a5966d370b9919b20f3e2c13ff65706f196a4e32cc2c12bf57088f885258743460405161013a9190610cef565b60405180910390a260045f9054906101000a900473ffffffffffffffffffffffffffffffffffffffff1673ffffffffffffffffffffffffffffffffffffffff1663b60d4288346040518263ffffffff1660e01b81526004015f604051808303818588803b1580156101a9575f5ffd5b505af11580156101bb573d5f5f3e3d5ffd5b505050505060045f9054906101000a900473ffffffffffffffffffffffffffffffffffffffff1673ffffffffffffffffffffffffffffffffffffffff167f6f1deddfc28100c291fae8f1064e4a91e844f0841993bb8fba9a913c3b801d80346040516102279190610cef565b60405180910390a2005b600460149054906101000a900460ff1615610281576040517f08c379a000000000000000000000000000000000000000000000000000000000815260040161027890610cb9565b60405180910390fd5b5f73ffffffffffffffffffffffffffffffffffffffff1660035f9054906101000a900473ffffffffffffffffffffffffffffffffffffffff1673ffffffffffffffffffffffffffffffffffffffff16146103a8575f60035f9054906101000a900473ffffffffffffffffffffffffffffffffffffffff1673ffffffffffffffffffffffffffffffffffffffff16345f3660405161031f929190610d44565b5f6040518083038185875af1925050503d805f8114610359576040519150601f19603f3d011682016040523d82523d5f602084013e61035e565b606091505b50509050806103a2576040517f08c379a000000000000000000000000000000000000000000000000000000000815260040161039990610da6565b60405180910390fd5b50610427565b60045f9054906101000a900473ffffffffffffffffffffffffffffffffffffffff1673ffffffffffffffffffffffffffffffffffffffff1663b60d4288346040518263ffffffff1660e01b81526004015f604051808303818588803b15801561040f575f5ffd5b505af1158015610421573d5f5f3e3d5ffd5b50505050505b005b348015610434575f5ffd5b5061043d6105b7565b60405161044a9190610e03565b60405180910390f35b34801561045e575f5ffd5b506104676105dc565b005b348015610474575f5ffd5b5061047d61077c565b005b34801561048a575f5ffd5b50610493610852565b6040516104a09190610e36565b60405180910390f35b3480156104b4575f5ffd5b506104bd610865565b6040516104ca9190610e03565b60405180910390f35b3480156104de575f5ffd5b506104f960048036038101906104f49190610e81565b61088a565b005b348015610506575f5ffd5b5061050f61095b565b005b34801561051c575f5ffd5b50610525610a32565b6040516105329190610e03565b60405180910390f35b348015610546575f5ffd5b5061054f610a56565b60405161055c9190610ec4565b60405180910390f35b348015610570575f5ffd5b5061058b60048036038101906105869190610f3e565b610a5c565b005b348015610598575f5ffd5b506105a1610c3a565b6040516105ae9190610e03565b60405180910390f35b60035f9054906101000a900473ffffffffffffffffffffffffffffffffffffffff1681565b5f5f9054906101000a900473ffffffffffffffffffffffffffffffffffffffff1673ffffffffffffffffffffffffffffffffffffffff163373ffffffffffffffffffffffffffffffffffffffff161461066a576040517f08c379a000000000000000000000000000000000000000000000000000000000815260040161066190610fe5565b60405180910390fd5b5f4790505f81116106b0576040517f08c379a00000000000000000000000000000000000000000000000000000000081526004016106a79061104d565b60405180910390fd5b5f5f5f9054906101000a900473ffffffffffffffffffffffffffffffffffffffff1673ffffffffffffffffffffffffffffffffffffffff16826040516106f59061108e565b5f6040518083038185875af1925050503d805f811461072f576040519150601f19603f3d011682016040523d82523d5f602084013e610734565b606091505b5050905080610778576040517f08c379a000000000000000000000000000000000000000000000000000000000815260040161076f906110ec565b60405180910390fd5b5050565b5f5f9054906101000a900473ffffffffffffffffffffffffffffffffffffffff1673ffffffffffffffffffffffffffffffffffffffff163373ffffffffffffffffffffffffffffffffffffffff161461080a576040517f08c379a000000000000000000000000000000000000000000000000000000000815260040161080190610fe5565b60405180910390fd5b5f600460146101000a81548160ff0219169083151502179055507fa45f47fdea8a1efdd9029a5691c7f759c32b7c698632b563573e155625d1693360405160405180910390a1565b600460149054906101000a900460ff1681565b60045f9054906101000a900473ffffffffffffffffffffffffffffffffffffffff1681565b5f5f9054906101000a900473ffffffffffffffffffffffffffffffffffffffff1673ffffffffffffffffffffffffffffffffffffffff163373ffffffffffffffffffffffffffffffffffffffff1614610918576040517f08c379a000000000000000000000000000000000000000000000000000000000815260040161090f90610fe5565b60405180910390fd5b8060035f6101000a81548173ffffffffffffffffffffffffffffffffffffffff021916908373ffffffffffffffffffffffffffffffffffffffff16021790555050565b5f5f9054906101000a900473ffffffffffffffffffffffffffffffffffffffff1673ffffffffffffffffffffffffffffffffffffffff163373ffffffffffffffffffffffffffffffffffffffff16146109e9576040517f08c379a00000000000000000000000000000000000000000000000000000000081526004016109e090610fe5565b60405180910390fd5b6001600460146101000a81548160ff0219169083151502179055507f9e87fac88ff661f02d44f95383c817fece4bce600a3dab7a54406878b965e75260405160405180910390a1565b5f5f9054906101000a900473ffffffffffffffffffffffffffffffffffffffff1681565b60025481565b5f5f9054906101000a900473ffffffffffffffffffffffffffffffffffffffff1673ffffffffffffffffffffffffffffffffffffffff163373ffffffffffffffffffffffffffffffffffffffff1614610aea576040517f08c379a0000000000000000000000000000000000000000000000000000000008152600401610ae190610fe5565b60405180910390fd5b600460149054906101000a900460ff1615610b3a576040517f08c379a0000000000000000000000000000000000000000000000000000000008152600401610b3190611154565b60405180910390fd5b5f8373ffffffffffffffffffffffffffffffffffffffff168383604051610b62929190610d44565b5f604051808303815f865af19150503d805f8114610b9b576040519150601f19603f3d011682016040523d82523d5f602084013e610ba0565b606091505b5050905080610be4576040517f08c379a0000000000000000000000000000000000000000000000000000000008152600401610bdb906111bc565b60405180910390fd5b8373ffffffffffffffffffffffffffffffffffffffff167f0dcf4ffb3b85ab072df6f9ed79b0382ec6c9619a98f36f4538d3b2e87fd3fd118484604051610c2c929190611226565b60405180910390a250505050565b60015f9054906101000a900473ffffffffffffffffffffffffffffffffffffffff1681565b5f82825260208201905092915050565b7f50617573656400000000000000000000000000000000000000000000000000005f82015250565b5f610ca3600683610c5f565b9150610cae82610c6f565b602082019050919050565b5f6020820190508181035f830152610cd081610c97565b9050919050565b5f819050919050565b610ce981610cd7565b82525050565b5f602082019050610d025f830184610ce0565b92915050565b5f81905092915050565b828183375f83830152505050565b5f610d2b8385610d08565b9350610d38838584610d12565b82840190509392505050565b5f610d50828486610d20565b91508190509392505050565b7f46616c6c6261636b2063616c6c206661696c65640000000000000000000000005f82015250565b5f610d90601483610c5f565b9150610d9b82610d5c565b602082019050919050565b5f6020820190508181035f830152610dbd81610d84565b9050919050565b5f73ffffffffffffffffffffffffffffffffffffffff82169050919050565b5f610ded82610dc4565b9050919050565b610dfd81610de3565b82525050565b5f602082019050610e165f830184610df4565b92915050565b5f8115159050919050565b610e3081610e1c565b82525050565b5f602082019050610e495f830184610e27565b92915050565b5f5ffd5b5f5ffd5b610e6081610de3565b8114610e6a575f5ffd5b50565b5f81359050610e7b81610e57565b92915050565b5f60208284031215610e9657610e95610e4f565b5b5f610ea384828501610e6d565b91505092915050565b5f819050919050565b610ebe81610eac565b82525050565b5f602082019050610ed75f830184610eb5565b92915050565b5f5ffd5b5f5ffd5b5f5ffd5b5f5f83601f840112610efe57610efd610edd565b5b8235905067ffffffffffffffff811115610f1b57610f1a610ee1565b5b602083019150836001820283011115610f3757610f36610ee5565b5b9250929050565b5f5f5f60408486031215610f5557610f54610e4f565b5b5f610f6286828701610e6d565b935050602084013567ffffffffffffffff811115610f8357610f82610e53565b5b610f8f86828701610ee9565b92509250509250925092565b7f4e6f74206f776e657200000000000000000000000000000000000000000000005f82015250565b5f610fcf600983610c5f565b9150610fda82610f9b565b602082019050919050565b5f6020820190508181035f830152610ffc81610fc3565b9050919050565b7f4e6f2066756e647320746f2077697468647261770000000000000000000000005f82015250565b5f611037601483610c5f565b915061104282611003565b602082019050919050565b5f6020820190508181035f8301526110648161102b565b9050919050565b50565b5f6110795f83610d08565b91506110848261106b565b5f82019050919050565b5f6110988261106e565b9150819050919050565b7f5769746864726177616c206661696c65640000000000000000000000000000005f82015250565b5f6110d6601183610c5f565b91506110e1826110a2565b602082019050919050565b5f6020820190508181035f830152611103816110ca565b9050919050565b7f436f6e74726163742069732070617573656400000000000000000000000000005f82015250565b5f61113e601283610c5f565b91506111498261110a565b602082019050919050565b5f6020820190508181035f83015261116b81611132565b9050919050565b7f43616c6c206661696c65640000000000000000000000000000000000000000005f82015250565b5f6111a6600b83610c5f565b91506111b182611172565b602082019050919050565b5f6020820190508181035f8301526111d38161119a565b9050919050565b5f82825260208201905092915050565b5f601f19601f8301169050919050565b5f61120583856111da565b9350611212838584610d12565b61121b836111ea565b840190509392505050565b5f6020820190508181035f83015261123f8184866111fa565b9050939250505056fea264697066735822122037ebd98ac911ada54ed462595962627d5f798d9fb749e88ec2b090de0081296b64736f6c634300081c0033","linkReferences":{}},"methodIdentifiers":{"executeCall(address,bytes)":"bca8c7b5","factory()":"c45a0155","fallbackTarget()":"320b2dc8","linkedEscrow()":"7d659614","owner()":"8da5cb5b","pause()":"8456cb59","paused()":"5c975abb","setFallbackTarget(address)":"81407aaa","unpause()":"3f4ba83a","uuid()":"bb07e85d","withdraw()":"3ccfd60b"},"id":1}